:030000000204B047
:0C04B000787FE4F6D8FD75812D020179FB
:1003F500454550524F4D2032344330340020416B37
:0C04050069662046617A616C20202000AE
:0C01F600C2A5D2A77F087E007D007C001F
:080202008F1C8E1B8D1A8C1954
:10020A00758902E4F58CAF1CAE1BAD1AAC19EC4D26
:10021A004E4F602FE4FFFED28C308DFDC28D0FBF92
:10022A0000010EEF64044E70EE74FF251CF51CE508
:10023A001B34FFF51BE51A34FFF51AE51934FFF5EF
:03024A001980C355
:01024D00228E
:0A037200D2A07F017E007D007C0018
:10037C008F1A8E198D188C17758902E51AF404F5ED
:09038C008CD28C308DFDC28D2253
:10047000C2A1120372D2A112037CC2A012037CC2D9
:02048000A122B7
:10048200C2A1120374C2A012037CD2A112037CD2B5
:02049200A022A6
:0F049400C2A0120374D2A112037CC2A1D2A02273
:0D04A300120372D2A112037CC2A1D2A022CA
:06041100EB25E044A0FF12
:10041700E4FEEF3392A0D2A1C2A1EF25E0FF0EBE0A
:0504270008F00204943E
:1003B700E4FBFA120374D2A1A2A0E4334203EAC316
:1003C70094075004EB25E0FBC2A10ABA08E5AF0386
:0103D7002203
:0A04BC008F80C2A61201F6C2A7222B
:0A04C6008F80D2A61201F6C2A72211
:10045D001200F9FF600C1204C6740129F9E43AFA8E
:03046D0080EE22FC
:04029E008E178F1810
:1002A200E4FBFAEC701FED14600E14600F14601082
:1002B200240370117F80800A7FC080067F948002B1
:1002C2007FD41204BCE4FAFBC3EB9518E5176480F3
:1002D200F8EA648098500C7F141204BC0BBB000136
:0302E2000A80E5AA
:0102E50022F6
:10042C007F381204BC7F011204BC7F801204BC7F95
:09043C00061204BC7F0C0204BC92
:10024E00AB07AA067C007D64120124EF2430FDE486
:10025E003EFCED64304C6007EF2430FF1204C67C88
:10026E00007D64AF03AE021201247E007F0ACFCD63
:10027E00CFCECCCE120124EF2430FF1204C6AE0234
:10028E00AF037C007D0A120124ED2430FF0204C668
:10039500AA07A905120470120411AF01120417AFC0
:1003A500021204171204827F057E007D007C000284
:0203B500020242
:04034400AB05AA0754
:10034800120470120411AF02120417120470EB2584
:10035800E044A1FF1204171203B7AB071204A3125B
:0903680004827F0A120376AF0340
:010371002269
:1002E6008F1D8B1E8A1F8920E5216022AB1EAA1F47
:1002F600A9201200F9FDAB22AF1D120395051D744E
:0F030600012520F520E4351FF51F152180DA228F
:100315008F238B248A258926E5276022AD28AF23E4
:10032500120344AB24AA25A926EF12011205237452
:0F033500012526F526E43525F525152780DA2242
:020445008F29FD
:10044700E4F52AAB29AD2AE4FF120395052AE52A2C
:05045700C394FF40EE1C
:01045C00227D
:1003D800E4F52DE4FBAD2DFF1203950BAD2DE4FFE5
:0C03E800120395052DE52DC394FF40E79E
:0103F40022E6
:1001790078087C007D007BFF7A0479027E007F0F7E
:100189001200D312042CE4FDFCFFFE12029E7BFF39
:100199007A0379F512045DE4F52BF52CAD2C74087E
:1001A9002DF8E6FFE4FB120395052CE52C700205FA
:1001B9002BC3940EE52B940040E27D017C00E4FF03
:1001C900FE12029EE4F52BF52CAF2CE4FD1203443C
:1001D9001204C67FF47E011201FE052CE52C700283
:0D01E900052BC3940EE52B940040DE80FE34
:10000300E709F608DFFA8046E709F208DFFA803EDF
:1000130088828C83E709F0A3DFFA8032E309F608CC
:10002300DFFA8078E309F208DFFA807088828C8334
:10003300E309F0A3DFFA806489828A83E0A3F608E8
:10004300DFFA805889828A83E0A3F208DFFA804CC2
:1000530080D280FA80C680D4806980F28033801099
:1000630080A680EA809A80A880DA80E280CA803302
:1000730089828A83ECFAE493A3C8C582C8CCC5837A
:10008300CCF0A3C8C582C8CCC583CCDFE9DEE7804A
:100093000D89828A83E493A3F608DFF9ECFAA9F0C9
:1000A300EDFB2289828A83ECFAE0A3C8C582C8CC1F
:1000B300C583CCF0A3C8C582C8CCC583CCDFEADE38
:1000C300E880DB89828A83E493A3F208DFF980CC9A
:1000D30088F0EF60010E4E60C388F0ED2402B40493
:1000E3000050B9F582EB2402B4040050AF2323453A
:0600F3008223900053730C
:1000F900BB010689828A83E0225002E722BBFE0205
:09010900E32289828A83E4932237
:10011200BB010689828A83F0225002F722BBFE01CC
:02012200F322C6
:10012400BC000BBE0029EF8DF084FFADF022E4CCBF
:10013400F875F008EF2FFFEE33FEEC33FCEE9DEC88
:10014400984005FCEE9DFE0FD5F0E9E4CEFD22EDCE
:10015400F8F5F0EE8420D21CFEADF075F008EF2F18
:10016400FFED33FD4007985006D5F0F222C398FD09
:050174000FD5F0EA22A6
:00000001FF
