:10110E00256C7500436F756E74657220454550529F
:04111E004F4D3A00F7
:100F30007547FF75481175490E8F4D8E4C8D4B8C42
:100F40004A7B007A00793812085CE4F536F537748C
:100F5000382537F8E6FF600D1211840537E5377044
:050F6000EE053680EAF9
:010F65002269
:100D0000E4F526F532F531F530F52FF534F53512E9
:100D100011221211B11211ACE4FDFF1211367BFF4A
:100D20007A117912120FFD7F407E427D0F7C00E424
:100D30007B0AFAF9F8120BF9E47B6D7A01F9F812E3
:100D40000BF9AB07AA06A905A804E4FF7E5CFDFC2D
:100D5000120BF98F258E248D238C22E4F533AF32CC
:100D6000AE31AD30AC2FC37403953375F008A4F9E0
:100D7000F8120C8B74272533F8A6070533E533B436
:100D800004DC7B007A007927753B047F207E00120B
:100D90000E987B007A00792B753B00753C047F2010
:100DA0007E00120E1AE4F532F531F530F52FF533E9
:100DB000AF32AE31AD30AC2F7808120C9EC004A912
:100DC00005AA06AB07742B2533F8E6FFD000EB4FDE
:100DD000F532EAF531E9F530E8F52F0533E533B4BE
:100DE00004CEE4FD7F01121136AF32AE31AD30AC2E
:100DF0002F120F30E5322401F532E43531F531E4BC
:100E00003530F530E4352FF52F7F017E001210C408
:0A0E1000AE24AF251210C4020D5BE2
:0411B600256C75002F
:101122007F381211727F0C1211727F011211727FBD
:0411320080021172B4
:101172008F80C2A5C2A612109EC2A77F0A7E00025D
:0211820010A4B7
:101184008F80C2A5D2A612109EC2A77F0A7E00023B
:0211940010A4A5
:0511AC007F0102117239
:060FFD008B368A378938AB
:10100300E4F539F53AAB36AA37A938853A828539FA
:1010130083120B5CFF600D121184053AE53A70E50B
:04102300053980E12A
:0110270022A6
:10113600EF7007ED2480F5368005ED24C0F536AF57
:0411460036021172EA
:100F66007547FF7548117549B68F4D8E4C8D4B8C64
:100F76004A7B007A00790A12085CE4F508F50974E0
:100F86000A2509F8E6FF600D1211840509E50970C6
:050F9600EE050880EAF1
:010F9B002233
:06109E00D2A77F0A7E00CC
:1010A400E4FDFCC3ED9FEC9E5015E4FBFA0BBB0082
:0F10B400010AEB640A4A70F50DBD00010C80E4DF
:0110C300220A
:08102800C2A1D2A07F057E00E9
:10103000E4FDFCC3ED9FEC9E5015E4FBFA0BBB00F6
:0F104000010AEB64144A70F50DBD00010C80E449
:01104F00227E
:0511B100D2A0D2A12232
:0A11A200D2A112102AC2A0021030E0
:10114A00C2A112102CD2A0121030D2A1121030C299
:04115A00A0021030AF
:10115E00C2A112102CC2A0121030D2A1121030D285
:04116E00A00210309B
:1010E400C2A17F0A7E00121030C2A0121030D2A119
:0510F4007F1402103022
:1010F900C2A17F0A7E00121030D2A0121030D2A1F4
:051109007F140210300C
:020F9C008F3F85
:100F9E00E4F9C2A112102CA801E53F088002C33368
:100FAE00D8FC30E704D2A08005C2A012102CD2A12A
:100FBE0012102C09B908DB121028D2A1121030A27F
:010FCE00A082
:010FCF0022FF
:100FD000E4F540F9121028D2A1121030A2A0E43397
:100FE000F53FC3740799FFF8E53F088002C333D883
:0C0FF000FC424012102C09B908DAAF4096
:010FFC0022D2
:101050008E168F178D1880077FA0120F9C500512D7
:1010600011A280F4E516FF120F9CAF17120F9CAF70
:0710700018120F9C02115E33
:040EEB008E198F1AB3
:100EEF00E4F51B80077FA0120F9C50051211A28002
:100EFF00F4E519FF120F9CAF1A120F9C12114A7FC3
:100F0F00A1120F9C120FD08F1B1210F9C2A07F05D8
:100F1F007E00121030D2A07F057E00121030AF1B62
:010F2F00229F
:0A0E98008E368F378B388A39893A7D
:100EA20080077FA0120F9C50051211A280F4E53634
:100EB200FF120F9CAF37120F9CE4F53CF53DC3E5E2
:100EC2003D953BE53C9400501DAB38AA39A93A85C3
:100ED2003D82853C83120B5CFF120F9C053DE53D74
:090EE20070DC053C80D802115EB1
:0A0E1A008E368F378B388A39893AFB
:100E240080077FA0120F9C50051211A280F4E536B2
:100E3400FF120F9CAF37120F9C12114A7FA1120FA1
:100E44009C120FD0AB38AA39A93AEF120B89753D21
:100E540000753E01C3E53E953CE53D953B502012AF
:100E640010E4120FD0AB38AA39A93A853E82853DE9
:100E740083EF120B9B053EE53E70D9053D80D512EC
:100E840010F9C2A07F057E00121030D2A07F057E2B
:040E94000002103018
:1010C400E4FDFCC3ED9FEC9E5015E4FBFA0BBB0062
:0F10D400010AEB64704A70F50DBD00010C80E459
:0110E30022EA
:0300000002119654
:0C119600787FE4F6D8FD758157020D004B
:100B5C00BB010CE58229F582E5833AF583E022504E
:100B6C0006E92582F8E622BBFE06E92582F8E22298
:0D0B7C00E58229F582E5833AF583E49322B2
:100B8900BB010689828A83F0225002F722BBFE014B
:020B9900F32245
:100B9B00F8BB010DE58229F582E5833AF583E8F090
:100BAB00225006E92582C8F622BBFE05E92582C83C
:020BBB00F22224
:100BBD0075F008758200EF2FFFEE33FECD33CDCCEF
:100BCD0033CCC58233C5829BED9AEC99E582984072
:100BDD000CF582EE9BFEED9AFDEC99FC0FD5F0D64F
:100BED00E4CEFBE4CDFAE4CCF9A88222B800C1B979
:100BFD000059BA002DEC8BF084CFCECDFCE5F0CBB7
:100C0D00F97818EF2FFFEE33FEED33FDEC33FCEBEF
:100C1D0033FB10D703994004EB99FB0FD8E5E4F9AA
:100C2D00FA227818EF2FFFEE33FEED33FDEC33FC97
:100C3D00C933C910D7059BE99A4007EC9BFCE99A8B
:100C4D00F90FD8E0E4C9FAE4CCFB2275F010EF2FD0
:100C5D00FFEE33FEED33FDCC33CCC833C810D707D0
:100C6D009BEC9AE899400AED9BFDEC9AFCE899F80B
:0E0C7D000FD5F0DAE4CDFBE4CCFAE4C8F9229E
:100C8B00E8600FECC313FCED13FDEE13FEEF13FF47
:030C9B00D8F1226B
:100C9E00E8600FEFC333FFEE33FEED33FDEC33FCB4
:030CAE00D8F12258
:10080000E5532447F8E60553227844300702784739
:10081000E475F001120CCA020CB12000EB7F2ED25D
:10082000008018EF540F2490D43440D4FF30040BD0
:10083000EF24BFB41A0050032461FFE55460021591
:10084000540557E5577002055630070D7844E47596
:10085000F001120CCAEF020B890210777403D20761
:100860008003E4C207F5538B448A458946E4F55476
:10087000F556F557E55460077F2012083B80F57563
:1008800055FFC201C200C202C203C205C206C208AD
:10089000120809FF700D3007057F0012084CAF5792
:1008A000AE5622B4255FC2D5C204120809FF24D077
:1008B000B40A00501A75F00A785430D50508B6FF0E
:1008C0000106C6A426F620D5047002D20380D924DE
:1008D000CFB41A00EF5004C2E5D204020A4CD20190
:1008E00080C6D20080C0D20280BCD2D580BAD205E8
:1008F00080B47F2012083B2002077401B5540040E9
:10090000F1120800FF12083B020874D208D20680D8
:1009100095120800FB120800FA120800F94A4B7001
:1009200006791D7A0B7BFF20022EE554602A7E009B
:100930008E82758300120B5C60060EEE655570F0BA
:10094000C2D5EBC0E0EAC0E0E9C0E0EE120A93D005
:10095000E0F9D0E0FAD0E0FB120CB1FF60AAEBC0E6
:10096000E0EAC0E0E9C0E012083BD0E02401F9D0A1
:10097000E03400FAD0E0FBE5550460DCD555D980C1
:10098000877BFF7A0A798FD202809C791080027966
:1009900008C206C2088008D2D5790A8004790AC242
:1009A000D5E555047002F555E4FAFDFEFF12080086
:1009B000FC7B08200113120800FD7B1030000A1296
:1009C0000800FE120800FF7B20EC3382D592D55040
:1009D00013C3E43000069FFFE49EFEE42001039D64
:1009E000FDE49CFCE4CBF8C201EC700CCFCECDCC86
:1009F000E824F8F870F38017C3EF33FFEE33FEED11
:100A000033FDEC33FCEB33FB994002FB0FD8E9EBF1
:100A1000300105F8D0E0C448B201C0E00AEC4D4E08
:100A20004F78207B0070C2EAB5550040BCC0E01290
:100A30000A95D0F0D0E0200104C4C0E0C4B201C0E7
:100A4000F0120824D0F0D5F0EB020874120CDA0989
:100A50001153098B5808E24C08DE42098F4F099761
:0F0A60004409974908F743099D550981460981C3
:100A6F00450981470B3D5008E62D08EA2E090D2B4D
:100A7F0008EE23090B200B262A08A64800000905BB
:100A8F003F3F3F00790AA2D5200314300509B91062
:100A9F00020404B9080104A2D52006025001042063
:100AAF0002689202B554005034C0E07F2030031921
:100ABF007F30A20272067205500F120AECC202C2F8
:100ACF0006C205C2087F30800F300503E9C0E0126F
:100ADF00083B300503D0E0F9D0E0B554CC30051712
:100AEF007F30B9100C12083B7F583004077F788095
:100AFF0003B9080312083B3002057F2D02083B7F24
:100B0F00202008F87F2B2006F322920280CF286E38
:100B1F00756C6C2900D2011208003001F8C20178FF
:100B2F005430D50108F60208A62D50434958120833
:100B3F00002403B405004001E4900B389312082CF5
:0D0B4F00743A12082CD20375540402098B6D
:100CB100BB010689828A83E0225002E722BBFE0241
:090CC100E32289828A83E4932274
:100CCA00FAE6FB0808E6F925F0F618E6CA3AF6222B
:100CDA00D083D082F8E4937012740193700DA3A3A9
:100CEA0093F8740193F5828883E4737402936860BD
:060CFA00EFA3A3A380DFBD
:10107700EFB40A07740D121082740A309811A899F8
:10108700B8130CC2983098FDA899C298B811F630D9
:0710970099FDC299F59922B1
:00000001FF
