:06091400416B69000000C8
:10055A00E4F52278237C00FD7BFF7A097914FE7F7B
:10056A000312042F78267C007D007BFF7A09791715
:10057A007E007F0312042F12085C12091F7D667F1A
:10058A00017E001207C27F017E001206AC8F227B19
:10059A00007A0079237530047F207E001206597B89
:1005AA00007A0079267530007531047F207E0012AA
:1005BA0005DBAF261208F6AF271208F6AF28120895
:1005CA00F6852229E4F52AFB7A0079291207978011
:0105DA00FE22
:1007C2008E2B8F2C8D2D80077FA01206F1500512E3
:1007D200088480F4E52BFF1206F1AF2C1206F1AF6C
:0707E2002D1206F10208AB25
:0406AC008E2B8F2CD6
:1006B000E4F52D80077FA01206F150051208848012
:1006C000F4E52BFF1206F1AF2C1206F11208987F09
:1006D000A11206F112076A8F2D1208D1C2A07FF471
:1006E0007E01120843D2A07FF47E01120843AF2D91
:0106F00022E7
:0A0659008E2B8F2C8B2D8A2E892FFB
:1006630080077FA01206F1500512088480F4E52B61
:10067300FF1206F1AF2C1206F1E4F531F532C3E5B2
:10068300329530E5319400501DAB2DAA2EA92F854C
:100693003282853183120455FF1206F10532E532A9
:0906A30070DC053180D80208ABBF
:0A05DB008E2B8F2C8B2D8A2E892F7A
:1005E50080077FA01206F1500512088480F4E52BE0
:1005F500FF1206F1AF2C1206F11208987FA1120620
:10060500F112076AAB2DAA2EA92FEF1204827532BB
:1006150000753301C3E5339531E53295305020122D
:1006250008BE12076AAB2DAA2EA92F853382853203
:1006350083EF1204940533E53370D9053280D51262
:1006450008D1C2A07FF47E01120843D2A07FF47EB8
:040655000102084353
:04092400256C7500C9
:10085C007F381208E47F0C1208E47F011208E47F51
:04086C00800208E41A
:1008E4008F80C2A5C2A6120810C2A77F0A7E00028A
:0208F4000816E4
:1008F6008F80C2A5D2A6120810C2A77F0A7E000268
:020906000816D1
:05091A007F010208E46A
:060797008B2B8A2C892D3A
:10079D00E4F52EF52FAB2BAA2CA92D852F82852EB6
:1007AD0083120455FF600D1208F6052FE52F70E535
:0407BD00052E80E1A4
:0107C1002215
:10087000EF7007ED2480F51C8005ED24C0F51CAF5A
:040880001C0208E46A
:10073400750BFF750C09750D248F118E108D0F8CA0
:100744000E7B007A00793612005FE4F534F53574D7
:10075400362535F8E6FF600D1208F60535E53570E7
:05076400EE053480EAFF
:01076900226D
:06081000D2A77F0A7E0062
:10081600E4FDFCC3ED9FEC9E5015E4FBFA0BBB0018
:0F082600010AEB640A4A70F50DBD00010C80E475
:0108350022A0
:0D0836007FFA7E00120843D2A17FFA7E00F7
:100843007C007D0F1204B6E4FDFCC3ED9FEC9E50CB
:08085300070DBD00010C80F24D
:01085B00227A
:05091F00D2A0D2A122CC
:10088400D2A1D2A07FF47E01120843C2A07FF47EDD
:040894000102084312
:10089800C2A112083FD2A0120836C2A07FFA7E0079
:0308A80002084300
:1008AB00C2A112083FC2A0120836D2A07FFA7E0066
:0308BB00020843ED
:1008BE00C2A112083FC2A012083FD2A17FF47E014E
:0308CE00020843DA
:1008D100C2A112083FD2A012083FD2A17FF47E012B
:0308E100020843C7
:0206F100AB0755
:1006F300E4FAC2A112083FA802EB088002C333D870
:10070300FC30E704D2A08002C2A012083FD2A17F2E
:10071300F47E011208430ABA08D8C2A1D2A07FF41A
:100723007E01120843D2A17FF47E01120843A2A0E6
:0107330022A3
:10076A00E4FBFAC2A1D2A07FF47E0112083AA2A049
:10077A00E433F9C374079AFFF8E9088002C333D84F
:0C078A00FC420312083F0ABA08D9AF0372
:010796002240
:03000000020908EA
:0C090800787FE4F6D8FD75814102055AA5
:10035F00E709F608DFFA8046E709F208DFFA803E80
:10036F0088828C83E709F0A3DFFA8032E309F6086D
:10037F00DFFA8078E309F208DFFA807088828C83D5
:10038F00E309F0A3DFFA806489828A83E0A3F60889
:10039F00DFFA805889828A83E0A3F208DFFA804C63
:1003AF0080D280FA80C680D4806980F2803380103A
:1003BF0080A680EA809A80A880DA80E280CA8033A3
:1003CF0089828A83ECFAE493A3C8C582C8CCC5831B
:1003DF00CCF0A3C8C582C8CCC583CCDFE9DEE780EB
:1003EF000D89828A83E493A3F608DFF9ECFAA9F06A
:1003FF00EDFB2289828A83ECFAE0A3C8C582C8CCC0
:10040F00C583CCF0A3C8C582C8CCC583CCDFEADED8
:10041F00E880DB89828A83E493A3F208DFF980CC3A
:10042F0088F0EF60010E4E60C388F0ED2402B40433
:10043F000050B9F582EB2402B4040050AF232345DA
:06044F0082239003AF734D
:10045500BB010CE58229F582E5833AF583E022505C
:1004650006E92582F8E622BBFE06E92582F8E222A6
:0D047500E58229F582E5833AF583E49322C0
:10048200BB010689828A83F0225002F722BBFE0159
:02049200F32253
:10049400F8BB010DE58229F582E5833AF583E8F09E
:1004A400225006E92582C8F622BBFE05E92582C84A
:0204B400F22232
:1004B600BC000BBE0029EF8DF084FFADF022E4CC2A
:1004C600F875F008EF2FFFEE33FEEC33FCEE9DECF3
:1004D600984005FCEE9DFE0FD5F0E9E4CEFD22ED39
:1004E600F8F5F0EE8420D21CFEADF075F008EF2F83
:1004F600FFED33FD4007985006D5F0F222C398FD74
:050506000FD5F0EA2210
:10000300E517240BF8E60517227808300702780B6A
:10001300E475F00112052402050B2000EB7F2ED2BC
:10002300008018EF540F2490D43440D4FF30040BD5
:10003300EF24BFB41A0050032461FFE518600215D2
:1000430018051BE51B7002051A30070D7808E475C7
:10005300F001120524EF0204820207E97403D207B8
:100063008003E4C207F5178B088A09890AE4F518A7
:10007300F51AF51BE51860077F2012003E80F57521
:1000830019FFC201C200C202C203C205C206C208EE
:1000930012000CFF700D3007057F0012004FAF1BDD
:1000A300AE1A22B4255FC2D5C20412000CFF24D0BD
:1000B300B40A00501A75F00A781830D50508B6FF4F
:1000C3000106C6A426F620D5047002D20380D924E3
:1000D300CFB41A00EF5004C2E5D20402024FD2019A
:1000E30080C6D20080C0D20280BCD2D580BAD205ED
:1000F30080B47F2012003E2002077401B51800402F
:10010300F1120003FF12003E020077D208D20680EC
:1001130095120003FB120003FA120003F94A4B7015
:100123000679207A037BFF20022EE518602A7E00E1
:100133008E8275830012045560060EEE651970F009
:10014300C2D5EBC0E0EAC0E0E9C0E0EE120296D00F
:10015300E0F9D0E0FAD0E0FB12050BFF60AAEBC098
:10016300E0EAC0E0E9C0E012003ED0E02401F9D0AB
:10017300E03400FAD0E0FBE5190460DCD519D9803E
:10018300877BFF7A027992D202809C791080027970
:1001930008C206C2088008D2D5790A8004790AC247
:1001A300D5E519047002F519E4FAFDFEFF12000308
:1001B300FC7B08200113120003FD7B1030000A12A0
:1001C3000003FE120003FF7B20EC3382D592D5504F
:1001D30013C3E43000069FFFE49EFEE42001039D69
:1001E300FDE49CFCE4CBF8C201EC700CCFCECDCC8B
:1001F300E824F8F870F38017C3EF33FFEE33FEED16
:1002030033FDEC33FCEB33FB994002FB0FD8E9EBF6
:10021300300105F8D0E0C448B201C0E00AEC4D4E0D
:100223004F78207B0070C2EAB5190040BCC0E012D1
:100233000298D0F0D0E0200104C4C0E0C4B201C0F1
:10024300F0120027D0F0D5F0EB020077120534014D
:100253001453018E5800E54C00E14201924F019A7C
:0F02630044019A4900FA4301A0550184460184E1
:100272004501844703405000E92D00ED2E01102B6B
:1002820000F123010E2003292A00A94800000108D9
:100292003F3F3F00790AA2D5200314300509B91067
:1002A200020404B9080104A2D52006025001042068
:1002B20002689202B518005034C0E07F2030031962
:1002C2007F30A20272067205500F1202EFC202C202
:1002D20006C205C2087F30800F300503E9C0E01274
:1002E200003E300503D0E0F9D0E0B518CC30051758
:1002F2007F30B9100C12003E7F583004077F78809F
:1003020003B9080312003E3002057F2D02003E7F32
:10031200202008F87F2B2006F322920280CF286E3D
:10032200756C6C2900D2011200033001F8C2017809
:100332001830D50108F60200A92D50434958120081
:10034200032403B405004001E490033B9312002F01
:0D035200743A12002FD20375180402018EB8
:10050B00BB010689828A83E0225002E722BBFE02EE
:09051B00E32289828A83E4932221
:10052400FAE6FB0808E6F925F0F618E6CA3AF622D8
:10053400D083D082F8E4937012740193700DA3A356
:1005440093F8740193F5828883E47374029368606A
:06055400EFA3A3A380DF6A
:1007E900EFB40A07740D1207F4740A309811A89926
:1007F900B8130CC2983098FDA899C298B811F63070
:0708090099FDC299F5992247
:00000001FF
